{
  "_format": "hh-sol-artifact-1",
  "contractName": "WavePortal",
  "sourceName": "contracts/WavePortal.sol",
  "abi": [
    {
      "inputs": [],
      "stateMutability": "nonpayable",
      "type": "constructor"
    },
    {
      "anonymous": false,
      "inputs": [
        {
          "indexed": true,
          "internalType": "address",
          "name": "from",
          "type": "address"
        },
        {
          "indexed": false,
          "internalType": "uint256",
          "name": "timestamp",
          "type": "uint256"
        },
        {
          "indexed": false,
          "internalType": "string",
          "name": "message",
          "type": "string"
        }
      ],
      "name": "NewWave",
      "type": "event"
    },
    {
      "inputs": [
        {
          "internalType": "address",
          "name": "",
          "type": "address"
        }
      ],
      "name": "balances",
      "outputs": [
        {
          "internalType": "uint256",
          "name": "",
          "type": "uint256"
        }
      ],
      "stateMutability": "view",
      "type": "function"
    },
    {
      "inputs": [],
      "name": "getAddresses",
      "outputs": [
        {
          "internalType": "address[]",
          "name": "",
          "type": "address[]"
        }
      ],
      "stateMutability": "view",
      "type": "function"
    },
    {
      "inputs": [],
      "name": "getAllWaves",
      "outputs": [
        {
          "components": [
            {
              "internalType": "address",
              "name": "waver",
              "type": "address"
            },
            {
              "internalType": "string",
              "name": "message",
              "type": "string"
            },
            {
              "internalType": "uint256",
              "name": "timestamp",
              "type": "uint256"
            }
          ],
          "internalType": "struct WavePortal.Wave[]",
          "name": "",
          "type": "tuple[]"
        }
      ],
      "stateMutability": "view",
      "type": "function"
    },
    {
      "inputs": [],
      "name": "getTotalWaves",
      "outputs": [
        {
          "internalType": "uint256",
          "name": "",
          "type": "uint256"
        }
      ],
      "stateMutability": "view",
      "type": "function"
    },
    {
      "inputs": [],
      "name": "getUserWaves",
      "outputs": [
        {
          "internalType": "address[]",
          "name": "",
          "type": "address[]"
        },
        {
          "internalType": "uint256[]",
          "name": "",
          "type": "uint256[]"
        }
      ],
      "stateMutability": "view",
      "type": "function"
    },
    {
      "inputs": [],
      "name": "totalWaves",
      "outputs": [
        {
          "internalType": "uint256",
          "name": "",
          "type": "uint256"
        }
      ],
      "stateMutability": "view",
      "type": "function"
    },
    {
      "inputs": [
        {
          "internalType": "string",
          "name": "_message",
          "type": "string"
        }
      ],
      "name": "wave",
      "outputs": [],
      "stateMutability": "nonpayable",
      "type": "function"
    }
  ],
  "bytecode": "0x60806040523480156200001157600080fd5b5062000041604051806060016040528060258152602001620015f4602591396200004760201b6200093f1760201c565b620001db565b620000e7816040516024016200005e919062000154565b6040516020818303038152906040527f41304fac000000000000000000000000000000000000000000000000000000007bffffffffffffffffffffffffffffffffffffffffffffffffffffffff19166020820180517bffffffffffffffffffffffffffffffffffffffffffffffffffffffff8381831617835250505050620000ea60201b60201c565b50565b60008151905060006a636f6e736f6c652e6c6f679050602083016000808483855afa5050505050565b6000620001208262000178565b6200012c818562000183565b93506200013e81856020860162000194565b6200014981620001ca565b840191505092915050565b6000602082019050818103600083015262000170818462000113565b905092915050565b600081519050919050565b600082825260208201905092915050565b60005b83811015620001b457808201518184015260208101905062000197565b83811115620001c4576000848401525b50505050565b6000601f19601f8301169050919050565b61140980620001eb6000396000f3fe608060405234801561001057600080fd5b506004361061007d5760003560e01c80634ad88b381161005b5780634ad88b38146100ec5780639a2cdc081461010b578063a39fac1214610129578063bd43a908146101475761007d565b806327e235e314610082578063291bcab3146100b2578063449d46c0146100d0575b600080fd5b61009c60048036038101906100979190610c5c565b610165565b6040516100a9919061104b565b60405180910390f35b6100ba61017d565b6040516100c7919061104b565b60405180910390f35b6100ea60048036038101906100e59190610c85565b610183565b005b6100f4610432565b604051610102929190610f5b565b60405180910390f35b610113610715565b604051610120919061104b565b60405180910390f35b610131610760565b60405161013e9190610f39565b60405180910390f35b61014f6107ee565b60405161015c9190610f92565b60405180910390f35b60006020528060005260406000206000915090505481565b60025481565b60016002600082825461019691906111cf565b9250508190555060016000803373ffffffffffffffffffffffffffffffffffffffff1673ffffffffffffffffffffffffffffffffffffffff16815260200190815260200160002060008282546101ec91906111cf565b925050819055506001339080600181540180825580915050600190039060005260206000200160009091909190916101000a81548173ffffffffffffffffffffffffffffffffffffffff021916908373ffffffffffffffffffffffffffffffffffffffff1602179055506102966040518060400160405280601681526020017f257320776176656420772f206d6573736167652025730000000000000000000081525033836109d8565b6103136040518060400160405280601881526020017f62616c616e636520666f722073656e64657220697320256400000000000000008152506000803373ffffffffffffffffffffffffffffffffffffffff1673ffffffffffffffffffffffffffffffffffffffff16815260200190815260200160002054610a77565b600360405180606001604052803373ffffffffffffffffffffffffffffffffffffffff16815260200183815260200142815250908060018154018082558091505060019003906000526020600020906003020160009091909190915060008201518160000160006101000a81548173ffffffffffffffffffffffffffffffffffffffff021916908373ffffffffffffffffffffffffffffffffffffffff16021790555060208201518160010190805190602001906103d2929190610b3c565b506040820151816002015550503373ffffffffffffffffffffffffffffffffffffffff167f5f7e16dc676677766a70e9c5628aa6c54ddb8b6e5188e2ae1e1f17f1ffbea7164283604051610427929190611066565b60405180910390a250565b606080600060018054905067ffffffffffffffff81111561047c577f4e487b7100000000000000000000000000000000000000000000000000000000600052604160045260246000fd5b6040519080825280602002602001820160405280156104aa5781602001602082028036833780820191505090505b509050600060018054905067ffffffffffffffff8111156104f4577f4e487b7100000000000000000000000000000000000000000000000000000000600052604160045260246000fd5b6040519080825280602002602001820160405280156105225781602001602082028036833780820191505090505b50905060005b600180549050811015610708576001818154811061056f577f4e487b7100000000000000000000000000000000000000000000000000000000600052603260045260246000fd5b9060005260206000200160009054906101000a900473ffffffffffffffffffffffffffffffffffffffff168382815181106105d3577f4e487b7100000000000000000000000000000000000000000000000000000000600052603260045260246000fd5b602002602001019073ffffffffffffffffffffffffffffffffffffffff16908173ffffffffffffffffffffffffffffffffffffffff16815250506000806001838154811061064a577f4e487b7100000000000000000000000000000000000000000000000000000000600052603260045260246000fd5b9060005260206000200160009054906101000a900473ffffffffffffffffffffffffffffffffffffffff1673ffffffffffffffffffffffffffffffffffffffff1673ffffffffffffffffffffffffffffffffffffffff168152602001908152602001600020548282815181106106e9577f4e487b7100000000000000000000000000000000000000000000000000000000600052603260045260246000fd5b6020026020010181815250508080610700906112d5565b915050610528565b5081819350935050509091565b60006107586040518060400160405280601681526020017f7765206861766520256420746f74616c20776176657300000000000000000000815250600254610a77565b600254905090565b606060018054806020026020016040519081016040528092919081815260200182805480156107e457602002820191906000526020600020905b8160009054906101000a900473ffffffffffffffffffffffffffffffffffffffff1673ffffffffffffffffffffffffffffffffffffffff168152602001906001019080831161079a575b5050505050905090565b60606003805480602002602001604051908101604052809291908181526020016000905b8282101561093657838290600052602060002090600302016040518060600160405290816000820160009054906101000a900473ffffffffffffffffffffffffffffffffffffffff1673ffffffffffffffffffffffffffffffffffffffff1673ffffffffffffffffffffffffffffffffffffffff16815260200160018201805461089b906112a3565b80601f01602080910402602001604051908101604052809291908181526020018280546108c7906112a3565b80156109145780601f106108e957610100808354040283529160200191610914565b820191906000526020600020905b8154815290600101906020018083116108f757829003601f168201915b5050505050815260200160028201548152505081526020019060010190610812565b50505050905090565b6109d5816040516024016109539190610fb4565b6040516020818303038152906040527f41304fac000000000000000000000000000000000000000000000000000000007bffffffffffffffffffffffffffffffffffffffffffffffffffffffff19166020820180517bffffffffffffffffffffffffffffffffffffffffffffffffffffffff8381831617835250505050610b13565b50565b610a728383836040516024016109f093929190610fd6565b6040516020818303038152906040527fe0e9ad4f000000000000000000000000000000000000000000000000000000007bffffffffffffffffffffffffffffffffffffffffffffffffffffffff19166020820180517bffffffffffffffffffffffffffffffffffffffffffffffffffffffff8381831617835250505050610b13565b505050565b610b0f8282604051602401610a8d92919061101b565b6040516020818303038152906040527f9710a9d0000000000000000000000000000000000000000000000000000000007bffffffffffffffffffffffffffffffffffffffffffffffffffffffff19166020820180517bffffffffffffffffffffffffffffffffffffffffffffffffffffffff8381831617835250505050610b13565b5050565b60008151905060006a636f6e736f6c652e6c6f679050602083016000808483855afa5050505050565b828054610b48906112a3565b90600052602060002090601f016020900481019282610b6a5760008555610bb1565b82601f10610b8357805160ff1916838001178555610bb1565b82800160010185558215610bb1579182015b82811115610bb0578251825591602001919060010190610b95565b5b509050610bbe9190610bc2565b5090565b5b80821115610bdb576000816000905550600101610bc3565b5090565b6000610bf2610bed846110c7565b611096565b905082815260208101848484011115610c0a57600080fd5b610c15848285611261565b509392505050565b600081359050610c2c816113bc565b92915050565b600082601f830112610c4357600080fd5b8135610c53848260208601610bdf565b91505092915050565b600060208284031215610c6e57600080fd5b6000610c7c84828501610c1d565b91505092915050565b600060208284031215610c9757600080fd5b600082013567ffffffffffffffff811115610cb157600080fd5b610cbd84828501610c32565b91505092915050565b6000610cd28383610d0a565b60208301905092915050565b6000610cea8383610ecb565b905092915050565b6000610cfe8383610f1b565b60208301905092915050565b610d1381611225565b82525050565b610d2281611225565b82525050565b6000610d3382611127565b610d3d818561117a565b9350610d48836110f7565b8060005b83811015610d79578151610d608882610cc6565b9750610d6b83611153565b925050600181019050610d4c565b5085935050505092915050565b6000610d9182611132565b610d9b818561118b565b935083602082028501610dad85611107565b8060005b85811015610de95784840389528151610dca8582610cde565b9450610dd583611160565b925060208a01995050600181019050610db1565b50829750879550505050505092915050565b6000610e068261113d565b610e10818561119c565b9350610e1b83611117565b8060005b83811015610e4c578151610e338882610cf2565b9750610e3e8361116d565b925050600181019050610e1f565b5085935050505092915050565b6000610e6482611148565b610e6e81856111ad565b9350610e7e818560208601611270565b610e87816113ab565b840191505092915050565b6000610e9d82611148565b610ea781856111be565b9350610eb7818560208601611270565b610ec0816113ab565b840191505092915050565b6000606083016000830151610ee36000860182610d0a565b5060208301518482036020860152610efb8282610e59565b9150506040830151610f106040860182610f1b565b508091505092915050565b610f2481611257565b82525050565b610f3381611257565b82525050565b60006020820190508181036000830152610f538184610d28565b905092915050565b60006040820190508181036000830152610f758185610d28565b90508181036020830152610f898184610dfb565b90509392505050565b60006020820190508181036000830152610fac8184610d86565b905092915050565b60006020820190508181036000830152610fce8184610e92565b905092915050565b60006060820190508181036000830152610ff08186610e92565b9050610fff6020830185610d19565b81810360408301526110118184610e92565b9050949350505050565b600060408201905081810360008301526110358185610e92565b90506110446020830184610f2a565b9392505050565b60006020820190506110606000830184610f2a565b92915050565b600060408201905061107b6000830185610f2a565b818103602083015261108d8184610e92565b90509392505050565b6000604051905081810181811067ffffffffffffffff821117156110bd576110bc61137c565b5b8060405250919050565b600067ffffffffffffffff8211156110e2576110e161137c565b5b601f19601f8301169050602081019050919050565b6000819050602082019050919050565b6000819050602082019050919050565b6000819050602082019050919050565b600081519050919050565b600081519050919050565b600081519050919050565b600081519050919050565b6000602082019050919050565b6000602082019050919050565b6000602082019050919050565b600082825260208201905092915050565b600082825260208201905092915050565b600082825260208201905092915050565b600082825260208201905092915050565b600082825260208201905092915050565b60006111da82611257565b91506111e583611257565b9250827fffffffffffffffffffffffffffffffffffffffffffffffffffffffffffffffff0382111561121a5761121961131e565b5b828201905092915050565b600061123082611237565b9050919050565b600073ffffffffffffffffffffffffffffffffffffffff82169050919050565b6000819050919050565b82818337600083830152505050565b60005b8381101561128e578082015181840152602081019050611273565b8381111561129d576000848401525b50505050565b600060028204905060018216806112bb57607f821691505b602082108114156112cf576112ce61134d565b5b50919050565b60006112e082611257565b91507fffffffffffffffffffffffffffffffffffffffffffffffffffffffffffffffff8214156113135761131261131e565b5b600182019050919050565b7f4e487b7100000000000000000000000000000000000000000000000000000000600052601160045260246000fd5b7f4e487b7100000000000000000000000000000000000000000000000000000000600052602260045260246000fd5b7f4e487b7100000000000000000000000000000000000000000000000000000000600052604160045260246000fd5b6000601f19601f8301169050919050565b6113c581611225565b81146113d057600080fd5b5056fea26469706673582212202da400e3eaf2e74f75f1be6421237137c4ce6a62b07b709109ddb5857e0e087964736f6c63430008000033596f20796f2c204920616d206120636f6e747261637420616e64204920616d20736d617274",
  "linkReferences": {},
  "deployedLinkReferences": {}
}