{
  "_format": "hh-sol-artifact-1",
  "contractName": "WavePortal",
  "sourceName": "contracts/WavePortal.sol",
  "abi": [
    {
      "inputs": [],
      "stateMutability": "payable",
      "type": "constructor"
    },
    {
      "anonymous": false,
      "inputs": [
        {
          "indexed": true,
          "internalType": "address",
          "name": "from",
          "type": "address"
        },
        {
          "indexed": false,
          "internalType": "uint256",
          "name": "timestamp",
          "type": "uint256"
        },
        {
          "indexed": false,
          "internalType": "string",
          "name": "message",
          "type": "string"
        }
      ],
      "name": "NewWave",
      "type": "event"
    },
    {
      "inputs": [
        {
          "internalType": "address",
          "name": "",
          "type": "address"
        }
      ],
      "name": "balances",
      "outputs": [
        {
          "internalType": "uint256",
          "name": "",
          "type": "uint256"
        }
      ],
      "stateMutability": "view",
      "type": "function"
    },
    {
      "inputs": [],
      "name": "getAddresses",
      "outputs": [
        {
          "internalType": "address[]",
          "name": "",
          "type": "address[]"
        }
      ],
      "stateMutability": "view",
      "type": "function"
    },
    {
      "inputs": [],
      "name": "getAllWaves",
      "outputs": [
        {
          "components": [
            {
              "internalType": "address",
              "name": "waver",
              "type": "address"
            },
            {
              "internalType": "string",
              "name": "message",
              "type": "string"
            },
            {
              "internalType": "uint256",
              "name": "timestamp",
              "type": "uint256"
            }
          ],
          "internalType": "struct WavePortal.Wave[]",
          "name": "",
          "type": "tuple[]"
        }
      ],
      "stateMutability": "view",
      "type": "function"
    },
    {
      "inputs": [],
      "name": "getTotalWaves",
      "outputs": [
        {
          "internalType": "uint256",
          "name": "",
          "type": "uint256"
        }
      ],
      "stateMutability": "view",
      "type": "function"
    },
    {
      "inputs": [],
      "name": "getUserWaves",
      "outputs": [
        {
          "internalType": "address[]",
          "name": "",
          "type": "address[]"
        },
        {
          "internalType": "uint256[]",
          "name": "",
          "type": "uint256[]"
        }
      ],
      "stateMutability": "view",
      "type": "function"
    },
    {
      "inputs": [],
      "name": "totalWaves",
      "outputs": [
        {
          "internalType": "uint256",
          "name": "",
          "type": "uint256"
        }
      ],
      "stateMutability": "view",
      "type": "function"
    },
    {
      "inputs": [
        {
          "internalType": "string",
          "name": "_message",
          "type": "string"
        }
      ],
      "name": "wave",
      "outputs": [],
      "stateMutability": "nonpayable",
      "type": "function"
    }
  ],
  "bytecode": "0x6080604052620000336040518060600160405280602581526020016200182b602591396200003960201b62000a3e1760201c565b620001cd565b620000d98160405160240162000050919062000146565b6040516020818303038152906040527f41304fac000000000000000000000000000000000000000000000000000000007bffffffffffffffffffffffffffffffffffffffffffffffffffffffff19166020820180517bffffffffffffffffffffffffffffffffffffffffffffffffffffffff8381831617835250505050620000dc60201b60201c565b50565b60008151905060006a636f6e736f6c652e6c6f679050602083016000808483855afa5050505050565b600062000112826200016a565b6200011e818562000175565b93506200013081856020860162000186565b6200013b81620001bc565b840191505092915050565b6000602082019050818103600083015262000162818462000105565b905092915050565b600081519050919050565b600082825260208201905092915050565b60005b83811015620001a657808201518184015260208101905062000189565b83811115620001b6576000848401525b50505050565b6000601f19601f8301169050919050565b61164e80620001dd6000396000f3fe608060405234801561001057600080fd5b506004361061007d5760003560e01c80634ad88b381161005b5780634ad88b38146100ec5780639a2cdc081461010b578063a39fac1214610129578063bd43a908146101475761007d565b806327e235e314610082578063291bcab3146100b2578063449d46c0146100d0575b600080fd5b61009c60048036038101906100979190610d5b565b610165565b6040516100a99190611285565b60405180910390f35b6100ba61017d565b6040516100c79190611285565b60405180910390f35b6100ea60048036038101906100e59190610d84565b610183565b005b6100f4610531565b604051610102929190611155565b60405180910390f35b610113610814565b6040516101209190611285565b60405180910390f35b61013161085f565b60405161013e9190611133565b60405180910390f35b61014f6108ed565b60405161015c919061118c565b60405180910390f35b60006020528060005260406000206000915090505481565b60025481565b6001600260008282546101969190611414565b9250508190555060016000803373ffffffffffffffffffffffffffffffffffffffff1673ffffffffffffffffffffffffffffffffffffffff16815260200190815260200160002060008282546101ec9190611414565b925050819055506001339080600181540180825580915050600190039060005260206000200160009091909190916101000a81548173ffffffffffffffffffffffffffffffffffffffff021916908373ffffffffffffffffffffffffffffffffffffffff1602179055506102966040518060400160405280601681526020017f257320776176656420772f206d657373616765202573000000000000000000008152503383610ad7565b6103136040518060400160405280601881526020017f62616c616e636520666f722073656e64657220697320256400000000000000008152506000803373ffffffffffffffffffffffffffffffffffffffff1673ffffffffffffffffffffffffffffffffffffffff16815260200190815260200160002054610b76565b600360405180606001604052803373ffffffffffffffffffffffffffffffffffffffff16815260200183815260200142815250908060018154018082558091505060019003906000526020600020906003020160009091909190915060008201518160000160006101000a81548173ffffffffffffffffffffffffffffffffffffffff021916908373ffffffffffffffffffffffffffffffffffffffff16021790555060208201518160010190805190602001906103d2929190610c3b565b506040820151816002015550503373ffffffffffffffffffffffffffffffffffffffff167f5f7e16dc676677766a70e9c5628aa6c54ddb8b6e5188e2ae1e1f17f1ffbea71642836040516104279291906112a0565b60405180910390a26000655af3107a400090504781111561047d576040517f08c379a000000000000000000000000000000000000000000000000000000000815260040161047490611265565b60405180910390fd5b6000803373ffffffffffffffffffffffffffffffffffffffff16836040516104a49061111e565b60006040518083038185875af1925050503d80600081146104e1576040519150601f19603f3d011682016040523d82523d6000602084013e6104e6565b606091505b50915091508161052b576040517f08c379a000000000000000000000000000000000000000000000000000000000815260040161052290611245565b60405180910390fd5b50505050565b606080600060018054905067ffffffffffffffff81111561057b577f4e487b7100000000000000000000000000000000000000000000000000000000600052604160045260246000fd5b6040519080825280602002602001820160405280156105a95781602001602082028036833780820191505090505b509050600060018054905067ffffffffffffffff8111156105f3577f4e487b7100000000000000000000000000000000000000000000000000000000600052604160045260246000fd5b6040519080825280602002602001820160405280156106215781602001602082028036833780820191505090505b50905060005b600180549050811015610807576001818154811061066e577f4e487b7100000000000000000000000000000000000000000000000000000000600052603260045260246000fd5b9060005260206000200160009054906101000a900473ffffffffffffffffffffffffffffffffffffffff168382815181106106d2577f4e487b7100000000000000000000000000000000000000000000000000000000600052603260045260246000fd5b602002602001019073ffffffffffffffffffffffffffffffffffffffff16908173ffffffffffffffffffffffffffffffffffffffff168152505060008060018381548110610749577f4e487b7100000000000000000000000000000000000000000000000000000000600052603260045260246000fd5b9060005260206000200160009054906101000a900473ffffffffffffffffffffffffffffffffffffffff1673ffffffffffffffffffffffffffffffffffffffff1673ffffffffffffffffffffffffffffffffffffffff168152602001908152602001600020548282815181106107e8577f4e487b7100000000000000000000000000000000000000000000000000000000600052603260045260246000fd5b60200260200101818152505080806107ff9061151a565b915050610627565b5081819350935050509091565b60006108576040518060400160405280601681526020017f7765206861766520256420746f74616c20776176657300000000000000000000815250600254610b76565b600254905090565b606060018054806020026020016040519081016040528092919081815260200182805480156108e357602002820191906000526020600020905b8160009054906101000a900473ffffffffffffffffffffffffffffffffffffffff1673ffffffffffffffffffffffffffffffffffffffff1681526020019060010190808311610899575b5050505050905090565b60606003805480602002602001604051908101604052809291908181526020016000905b82821015610a3557838290600052602060002090600302016040518060600160405290816000820160009054906101000a900473ffffffffffffffffffffffffffffffffffffffff1673ffffffffffffffffffffffffffffffffffffffff1673ffffffffffffffffffffffffffffffffffffffff16815260200160018201805461099a906114e8565b80601f01602080910402602001604051908101604052809291908181526020018280546109c6906114e8565b8015610a135780601f106109e857610100808354040283529160200191610a13565b820191906000526020600020905b8154815290600101906020018083116109f657829003601f168201915b5050505050815260200160028201548152505081526020019060010190610911565b50505050905090565b610ad481604051602401610a5291906111ae565b6040516020818303038152906040527f41304fac000000000000000000000000000000000000000000000000000000007bffffffffffffffffffffffffffffffffffffffffffffffffffffffff19166020820180517bffffffffffffffffffffffffffffffffffffffffffffffffffffffff8381831617835250505050610c12565b50565b610b71838383604051602401610aef939291906111d0565b6040516020818303038152906040527fe0e9ad4f000000000000000000000000000000000000000000000000000000007bffffffffffffffffffffffffffffffffffffffffffffffffffffffff19166020820180517bffffffffffffffffffffffffffffffffffffffffffffffffffffffff8381831617835250505050610c12565b505050565b610c0e8282604051602401610b8c929190611215565b6040516020818303038152906040527f9710a9d0000000000000000000000000000000000000000000000000000000007bffffffffffffffffffffffffffffffffffffffffffffffffffffffff19166020820180517bffffffffffffffffffffffffffffffffffffffffffffffffffffffff8381831617835250505050610c12565b5050565b60008151905060006a636f6e736f6c652e6c6f679050602083016000808483855afa5050505050565b828054610c47906114e8565b90600052602060002090601f016020900481019282610c695760008555610cb0565b82601f10610c8257805160ff1916838001178555610cb0565b82800160010185558215610cb0579182015b82811115610caf578251825591602001919060010190610c94565b5b509050610cbd9190610cc1565b5090565b5b80821115610cda576000816000905550600101610cc2565b5090565b6000610cf1610cec84611301565b6112d0565b905082815260208101848484011115610d0957600080fd5b610d148482856114a6565b509392505050565b600081359050610d2b81611601565b92915050565b600082601f830112610d4257600080fd5b8135610d52848260208601610cde565b91505092915050565b600060208284031215610d6d57600080fd5b6000610d7b84828501610d1c565b91505092915050565b600060208284031215610d9657600080fd5b600082013567ffffffffffffffff811115610db057600080fd5b610dbc84828501610d31565b91505092915050565b6000610dd18383610e09565b60208301905092915050565b6000610de983836110b0565b905092915050565b6000610dfd8383611100565b60208301905092915050565b610e128161146a565b82525050565b610e218161146a565b82525050565b6000610e3282611361565b610e3c81856113b4565b9350610e4783611331565b8060005b83811015610e78578151610e5f8882610dc5565b9750610e6a8361138d565b925050600181019050610e4b565b5085935050505092915050565b6000610e908261136c565b610e9a81856113c5565b935083602082028501610eac85611341565b8060005b85811015610ee85784840389528151610ec98582610ddd565b9450610ed48361139a565b925060208a01995050600181019050610eb0565b50829750879550505050505092915050565b6000610f0582611377565b610f0f81856113d6565b9350610f1a83611351565b8060005b83811015610f4b578151610f328882610df1565b9750610f3d836113a7565b925050600181019050610f1e565b5085935050505092915050565b6000610f6382611382565b610f6d81856113f2565b9350610f7d8185602086016114b5565b610f86816115f0565b840191505092915050565b6000610f9c82611382565b610fa68185611403565b9350610fb68185602086016114b5565b610fbf816115f0565b840191505092915050565b6000610fd7602683611403565b91507f4661696c656420746f207769746864726177206d6f6e65792066726f6d20636f60008301527f6e747261637400000000000000000000000000000000000000000000000000006020830152604082019050919050565b600061103d6000836113e7565b9150600082019050919050565b6000611057602f83611403565b91507f4e6f7420656e6f7567682065746820696e20636f6e747261637420666f72207060008301527f6179696e67206f7574207072697a6500000000000000000000000000000000006020830152604082019050919050565b60006060830160008301516110c86000860182610e09565b50602083015184820360208601526110e08282610f58565b91505060408301516110f56040860182611100565b508091505092915050565b6111098161149c565b82525050565b6111188161149c565b82525050565b600061112982611030565b9150819050919050565b6000602082019050818103600083015261114d8184610e27565b905092915050565b6000604082019050818103600083015261116f8185610e27565b905081810360208301526111838184610efa565b90509392505050565b600060208201905081810360008301526111a68184610e85565b905092915050565b600060208201905081810360008301526111c88184610f91565b905092915050565b600060608201905081810360008301526111ea8186610f91565b90506111f96020830185610e18565b818103604083015261120b8184610f91565b9050949350505050565b6000604082019050818103600083015261122f8185610f91565b905061123e602083018461110f565b9392505050565b6000602082019050818103600083015261125e81610fca565b9050919050565b6000602082019050818103600083015261127e8161104a565b9050919050565b600060208201905061129a600083018461110f565b92915050565b60006040820190506112b5600083018561110f565b81810360208301526112c78184610f91565b90509392505050565b6000604051905081810181811067ffffffffffffffff821117156112f7576112f66115c1565b5b8060405250919050565b600067ffffffffffffffff82111561131c5761131b6115c1565b5b601f19601f8301169050602081019050919050565b6000819050602082019050919050565b6000819050602082019050919050565b6000819050602082019050919050565b600081519050919050565b600081519050919050565b600081519050919050565b600081519050919050565b6000602082019050919050565b6000602082019050919050565b6000602082019050919050565b600082825260208201905092915050565b600082825260208201905092915050565b600082825260208201905092915050565b600081905092915050565b600082825260208201905092915050565b600082825260208201905092915050565b600061141f8261149c565b915061142a8361149c565b9250827fffffffffffffffffffffffffffffffffffffffffffffffffffffffffffffffff0382111561145f5761145e611563565b5b828201905092915050565b60006114758261147c565b9050919050565b600073ffffffffffffffffffffffffffffffffffffffff82169050919050565b6000819050919050565b82818337600083830152505050565b60005b838110156114d35780820151818401526020810190506114b8565b838111156114e2576000848401525b50505050565b6000600282049050600182168061150057607f821691505b6020821081141561151457611513611592565b5b50919050565b60006115258261149c565b91507fffffffffffffffffffffffffffffffffffffffffffffffffffffffffffffffff82141561155857611557611563565b5b600182019050919050565b7f4e487b7100000000000000000000000000000000000000000000000000000000600052601160045260246000fd5b7f4e487b7100000000000000000000000000000000000000000000000000000000600052602260045260246000fd5b7f4e487b7100000000000000000000000000000000000000000000000000000000600052604160045260246000fd5b6000601f19601f8301169050919050565b61160a8161146a565b811461161557600080fd5b5056fea2646970667358221220b56d286ac899e7e2f3cb33e280e7161d8f2532616b465edbd0b1f7f8a340094964736f6c63430008000033596f20796f2c204920616d206120636f6e747261637420616e64204920616d20736d617274",
  "linkReferences": {},
  "deployedLinkReferences": {}
}