{
  "_format": "hh-sol-artifact-1",
  "contractName": "WavePortal",
  "sourceName": "contracts/WavePortal.sol",
  "abi": [
    {
      "inputs": [
        {
          "internalType": "uint256",
          "name": "cooldown_sec",
          "type": "uint256"
        }
      ],
      "stateMutability": "payable",
      "type": "constructor"
    },
    {
      "anonymous": false,
      "inputs": [
        {
          "indexed": true,
          "internalType": "address",
          "name": "from",
          "type": "address"
        },
        {
          "indexed": false,
          "internalType": "uint256",
          "name": "timestamp",
          "type": "uint256"
        },
        {
          "indexed": false,
          "internalType": "string",
          "name": "message",
          "type": "string"
        }
      ],
      "name": "NewWave",
      "type": "event"
    },
    {
      "inputs": [
        {
          "internalType": "address",
          "name": "",
          "type": "address"
        }
      ],
      "name": "balances",
      "outputs": [
        {
          "internalType": "uint256",
          "name": "",
          "type": "uint256"
        }
      ],
      "stateMutability": "view",
      "type": "function"
    },
    {
      "inputs": [],
      "name": "getAddresses",
      "outputs": [
        {
          "internalType": "address[]",
          "name": "",
          "type": "address[]"
        }
      ],
      "stateMutability": "view",
      "type": "function"
    },
    {
      "inputs": [],
      "name": "getAllWaves",
      "outputs": [
        {
          "components": [
            {
              "internalType": "address",
              "name": "waver",
              "type": "address"
            },
            {
              "internalType": "string",
              "name": "message",
              "type": "string"
            },
            {
              "internalType": "uint256",
              "name": "timestamp",
              "type": "uint256"
            }
          ],
          "internalType": "struct WavePortal.Wave[]",
          "name": "",
          "type": "tuple[]"
        }
      ],
      "stateMutability": "view",
      "type": "function"
    },
    {
      "inputs": [],
      "name": "getTotalWaves",
      "outputs": [
        {
          "internalType": "uint256",
          "name": "",
          "type": "uint256"
        }
      ],
      "stateMutability": "view",
      "type": "function"
    },
    {
      "inputs": [],
      "name": "getUserWaves",
      "outputs": [
        {
          "internalType": "address[]",
          "name": "",
          "type": "address[]"
        },
        {
          "internalType": "uint256[]",
          "name": "",
          "type": "uint256[]"
        }
      ],
      "stateMutability": "view",
      "type": "function"
    },
    {
      "inputs": [
        {
          "internalType": "address",
          "name": "",
          "type": "address"
        }
      ],
      "name": "lastWavedAt",
      "outputs": [
        {
          "internalType": "uint256",
          "name": "",
          "type": "uint256"
        }
      ],
      "stateMutability": "view",
      "type": "function"
    },
    {
      "inputs": [],
      "name": "totalWaves",
      "outputs": [
        {
          "internalType": "uint256",
          "name": "",
          "type": "uint256"
        }
      ],
      "stateMutability": "view",
      "type": "function"
    },
    {
      "inputs": [
        {
          "internalType": "string",
          "name": "_message",
          "type": "string"
        }
      ],
      "name": "wave",
      "outputs": [],
      "stateMutability": "nonpayable",
      "type": "function"
    }
  ],
  "bytecode": "0x608060405260405162001de938038062001de98339818101604052810190620000299190620001a8565b620000746040518060400160405280601d81526020017f436f6e747261637420686173206265656e20636f6e73747275637465640000008152506200009260201b62000c031760201c565b806005819055506200008b6200013560201b60201c565b50620003b3565b6200013281604051602401620000a9919062000215565b6040516020818303038152906040527f41304fac000000000000000000000000000000000000000000000000000000007bffffffffffffffffffffffffffffffffffffffffffffffffffffffff19166020820180517bffffffffffffffffffffffffffffffffffffffffffffffffffffffff83818316178352505050506200016860201b60201c565b50565b6064600454424462000148919062000255565b62000154919062000255565b620001609190620002f2565b600481905550565b60008151905060006a636f6e736f6c652e6c6f679050602083016000808483855afa5050505050565b600081519050620001a28162000399565b92915050565b600060208284031215620001bb57600080fd5b6000620001cb8482850162000191565b91505092915050565b6000620001e18262000239565b620001ed818562000244565b9350620001ff818560208601620002bc565b6200020a8162000388565b840191505092915050565b60006020820190508181036000830152620002318184620001d4565b905092915050565b600081519050919050565b600082825260208201905092915050565b60006200026282620002b2565b91506200026f83620002b2565b9250827fffffffffffffffffffffffffffffffffffffffffffffffffffffffffffffffff03821115620002a757620002a66200032a565b5b828201905092915050565b6000819050919050565b60005b83811015620002dc578082015181840152602081019050620002bf565b83811115620002ec576000848401525b50505050565b6000620002ff82620002b2565b91506200030c83620002b2565b9250826200031f576200031e62000359565b5b828206905092915050565b7f4e487b7100000000000000000000000000000000000000000000000000000000600052601160045260246000fd5b7f4e487b7100000000000000000000000000000000000000000000000000000000600052601260045260246000fd5b6000601f19601f8301169050919050565b620003a481620002b2565b8114620003b057600080fd5b50565b611a2680620003c36000396000f3fe608060405234801561001057600080fd5b50600436106100885760003560e01c80639a2cdc081161005b5780639a2cdc0814610116578063a39fac1214610134578063a42a466314610152578063bd43a9081461018257610088565b806327e235e31461008d578063291bcab3146100bd578063449d46c0146100db5780634ad88b38146100f7575b600080fd5b6100a760048036038101906100a29190610fe9565b6101a0565b6040516100b491906115a3565b60405180910390f35b6100c56101b8565b6040516100d291906115a3565b60405180910390f35b6100f560048036038101906100f09190611012565b6101be565b005b6100ff6106de565b60405161010d929190611423565b60405180910390f35b61011e6109c1565b60405161012b91906115a3565b60405180910390f35b61013c610a0c565b6040516101499190611401565b60405180910390f35b61016c60048036038101906101679190610fe9565b610a9a565b60405161017991906115a3565b60405180910390f35b61018a610ab2565b604051610197919061145a565b60405180910390f35b60006020528060005260406000206000915090505481565b60025481565b4260016005546101ce9190611788565b600660003373ffffffffffffffffffffffffffffffffffffffff1673ffffffffffffffffffffffffffffffffffffffff168152602001908152602001600020546102189190611732565b10610258576040517f08c379a000000000000000000000000000000000000000000000000000000000815260040161024f90611563565b60405180910390fd5b42600660003373ffffffffffffffffffffffffffffffffffffffff1673ffffffffffffffffffffffffffffffffffffffff168152602001908152602001600020819055506001600260008282546102af9190611732565b9250508190555060016000803373ffffffffffffffffffffffffffffffffffffffff1673ffffffffffffffffffffffffffffffffffffffff16815260200190815260200160002060008282546103059190611732565b925050819055506001339080600181540180825580915050600190039060005260206000200160009091909190916101000a81548173ffffffffffffffffffffffffffffffffffffffff021916908373ffffffffffffffffffffffffffffffffffffffff1602179055506103af6040518060400160405280601681526020017f257320776176656420772f206d657373616765202573000000000000000000008152503383610c9c565b61042c6040518060400160405280601881526020017f62616c616e636520666f722073656e64657220697320256400000000000000008152506000803373ffffffffffffffffffffffffffffffffffffffff1673ffffffffffffffffffffffffffffffffffffffff16815260200190815260200160002054610d3b565b600360405180606001604052803373ffffffffffffffffffffffffffffffffffffffff16815260200183815260200142815250908060018154018082558091505060019003906000526020600020906003020160009091909190915060008201518160000160006101000a81548173ffffffffffffffffffffffffffffffffffffffff021916908373ffffffffffffffffffffffffffffffffffffffff16021790555060208201518160010190805190602001906104eb929190610ec9565b50604082015181600201555050610500610dd7565b6105416040518060400160405280601681526020017f52616e646f6d20232067656e6572617465643a20256400000000000000000000815250600454610d3b565b6032600454101561068b5761058b6040518060400160405280600681526020017f257320776f6e000000000000000000000000000000000000000000000000000081525033610e04565b6000655af3107a40009050478111156105d9576040517f08c379a00000000000000000000000000000000000000000000000000000000081526004016105d090611583565b60405180910390fd5b6000803373ffffffffffffffffffffffffffffffffffffffff1683604051610600906113ec565b60006040518083038185875af1925050503d806000811461063d576040519150601f19603f3d011682016040523d82523d6000602084013e610642565b606091505b509150915081610687576040517f08c379a000000000000000000000000000000000000000000000000000000000815260040161067e90611543565b60405180910390fd5b5050505b3373ffffffffffffffffffffffffffffffffffffffff167f5f7e16dc676677766a70e9c5628aa6c54ddb8b6e5188e2ae1e1f17f1ffbea71642836040516106d39291906115be565b60405180910390a250565b606080600060018054905067ffffffffffffffff811115610728577f4e487b7100000000000000000000000000000000000000000000000000000000600052604160045260246000fd5b6040519080825280602002602001820160405280156107565781602001602082028036833780820191505090505b509050600060018054905067ffffffffffffffff8111156107a0577f4e487b7100000000000000000000000000000000000000000000000000000000600052604160045260246000fd5b6040519080825280602002602001820160405280156107ce5781602001602082028036833780820191505090505b50905060005b6001805490508110156109b4576001818154811061081b577f4e487b7100000000000000000000000000000000000000000000000000000000600052603260045260246000fd5b9060005260206000200160009054906101000a900473ffffffffffffffffffffffffffffffffffffffff1683828151811061087f577f4e487b7100000000000000000000000000000000000000000000000000000000600052603260045260246000fd5b602002602001019073ffffffffffffffffffffffffffffffffffffffff16908173ffffffffffffffffffffffffffffffffffffffff1681525050600080600183815481106108f6577f4e487b7100000000000000000000000000000000000000000000000000000000600052603260045260246000fd5b9060005260206000200160009054906101000a900473ffffffffffffffffffffffffffffffffffffffff1673ffffffffffffffffffffffffffffffffffffffff1673ffffffffffffffffffffffffffffffffffffffff16815260200190815260200160002054828281518110610995577f4e487b7100000000000000000000000000000000000000000000000000000000600052603260045260246000fd5b60200260200101818152505080806109ac90611892565b9150506107d4565b5081819350935050509091565b6000610a046040518060400160405280601681526020017f7765206861766520256420746f74616c20776176657300000000000000000000815250600254610d3b565b600254905090565b60606001805480602002602001604051908101604052809291908181526020018280548015610a9057602002820191906000526020600020905b8160009054906101000a900473ffffffffffffffffffffffffffffffffffffffff1673ffffffffffffffffffffffffffffffffffffffff1681526020019060010190808311610a46575b5050505050905090565b60066020528060005260406000206000915090505481565b60606003805480602002602001604051908101604052809291908181526020016000905b82821015610bfa57838290600052602060002090600302016040518060600160405290816000820160009054906101000a900473ffffffffffffffffffffffffffffffffffffffff1673ffffffffffffffffffffffffffffffffffffffff1673ffffffffffffffffffffffffffffffffffffffff168152602001600182018054610b5f90611860565b80601f0160208091040260200160405190810160405280929190818152602001828054610b8b90611860565b8015610bd85780601f10610bad57610100808354040283529160200191610bd8565b820191906000526020600020905b815481529060010190602001808311610bbb57829003601f168201915b5050505050815260200160028201548152505081526020019060010190610ad6565b50505050905090565b610c9981604051602401610c17919061147c565b6040516020818303038152906040527f41304fac000000000000000000000000000000000000000000000000000000007bffffffffffffffffffffffffffffffffffffffffffffffffffffffff19166020820180517bffffffffffffffffffffffffffffffffffffffffffffffffffffffff8381831617835250505050610ea0565b50565b610d36838383604051602401610cb4939291906114ce565b6040516020818303038152906040527fe0e9ad4f000000000000000000000000000000000000000000000000000000007bffffffffffffffffffffffffffffffffffffffffffffffffffffffff19166020820180517bffffffffffffffffffffffffffffffffffffffffffffffffffffffff8381831617835250505050610ea0565b505050565b610dd38282604051602401610d51929190611513565b6040516020818303038152906040527f9710a9d0000000000000000000000000000000000000000000000000000000007bffffffffffffffffffffffffffffffffffffffffffffffffffffffff19166020820180517bffffffffffffffffffffffffffffffffffffffffffffffffffffffff8381831617835250505050610ea0565b5050565b60646004544244610de89190611732565b610df29190611732565b610dfc91906118db565b600481905550565b610e9c8282604051602401610e1a92919061149e565b6040516020818303038152906040527f319af333000000000000000000000000000000000000000000000000000000007bffffffffffffffffffffffffffffffffffffffffffffffffffffffff19166020820180517bffffffffffffffffffffffffffffffffffffffffffffffffffffffff8381831617835250505050610ea0565b5050565b60008151905060006a636f6e736f6c652e6c6f679050602083016000808483855afa5050505050565b828054610ed590611860565b90600052602060002090601f016020900481019282610ef75760008555610f3e565b82601f10610f1057805160ff1916838001178555610f3e565b82800160010185558215610f3e579182015b82811115610f3d578251825591602001919060010190610f22565b5b509050610f4b9190610f4f565b5090565b5b80821115610f68576000816000905550600101610f50565b5090565b6000610f7f610f7a8461161f565b6115ee565b905082815260208101848484011115610f9757600080fd5b610fa284828561181e565b509392505050565b600081359050610fb9816119d9565b92915050565b600082601f830112610fd057600080fd5b8135610fe0848260208601610f6c565b91505092915050565b600060208284031215610ffb57600080fd5b600061100984828501610faa565b91505092915050565b60006020828403121561102457600080fd5b600082013567ffffffffffffffff81111561103e57600080fd5b61104a84828501610fbf565b91505092915050565b600061105f8383611097565b60208301905092915050565b6000611077838361137e565b905092915050565b600061108b83836113ce565b60208301905092915050565b6110a0816117e2565b82525050565b6110af816117e2565b82525050565b60006110c08261167f565b6110ca81856116d2565b93506110d58361164f565b8060005b838110156111065781516110ed8882611053565b97506110f8836116ab565b9250506001810190506110d9565b5085935050505092915050565b600061111e8261168a565b61112881856116e3565b93508360208202850161113a8561165f565b8060005b858110156111765784840389528151611157858261106b565b9450611162836116b8565b925060208a0199505060018101905061113e565b50829750879550505050505092915050565b600061119382611695565b61119d81856116f4565b93506111a88361166f565b8060005b838110156111d95781516111c0888261107f565b97506111cb836116c5565b9250506001810190506111ac565b5085935050505092915050565b60006111f1826116a0565b6111fb8185611710565b935061120b81856020860161182d565b611214816119c8565b840191505092915050565b600061122a826116a0565b6112348185611721565b935061124481856020860161182d565b61124d816119c8565b840191505092915050565b6000611265602683611721565b91507f4661696c656420746f207769746864726177206d6f6e65792066726f6d20636f60008301527f6e747261637400000000000000000000000000000000000000000000000000006020830152604082019050919050565b60006112cb600083611705565b9150600082019050919050565b60006112e5600b83611721565b91507f57616974203135206d696e0000000000000000000000000000000000000000006000830152602082019050919050565b6000611325602f83611721565b91507f4e6f7420656e6f7567682065746820696e20636f6e747261637420666f72207060008301527f6179696e67206f7574207072697a6500000000000000000000000000000000006020830152604082019050919050565b60006060830160008301516113966000860182611097565b50602083015184820360208601526113ae82826111e6565b91505060408301516113c360408601826113ce565b508091505092915050565b6113d781611814565b82525050565b6113e681611814565b82525050565b60006113f7826112be565b9150819050919050565b6000602082019050818103600083015261141b81846110b5565b905092915050565b6000604082019050818103600083015261143d81856110b5565b905081810360208301526114518184611188565b90509392505050565b600060208201905081810360008301526114748184611113565b905092915050565b60006020820190508181036000830152611496818461121f565b905092915050565b600060408201905081810360008301526114b8818561121f565b90506114c760208301846110a6565b9392505050565b600060608201905081810360008301526114e8818661121f565b90506114f760208301856110a6565b8181036040830152611509818461121f565b9050949350505050565b6000604082019050818103600083015261152d818561121f565b905061153c60208301846113dd565b9392505050565b6000602082019050818103600083015261155c81611258565b9050919050565b6000602082019050818103600083015261157c816112d8565b9050919050565b6000602082019050818103600083015261159c81611318565b9050919050565b60006020820190506115b860008301846113dd565b92915050565b60006040820190506115d360008301856113dd565b81810360208301526115e5818461121f565b90509392505050565b6000604051905081810181811067ffffffffffffffff8211171561161557611614611999565b5b8060405250919050565b600067ffffffffffffffff82111561163a57611639611999565b5b601f19601f8301169050602081019050919050565b6000819050602082019050919050565b6000819050602082019050919050565b6000819050602082019050919050565b600081519050919050565b600081519050919050565b600081519050919050565b600081519050919050565b6000602082019050919050565b6000602082019050919050565b6000602082019050919050565b600082825260208201905092915050565b600082825260208201905092915050565b600082825260208201905092915050565b600081905092915050565b600082825260208201905092915050565b600082825260208201905092915050565b600061173d82611814565b915061174883611814565b9250827fffffffffffffffffffffffffffffffffffffffffffffffffffffffffffffffff0382111561177d5761177c61190c565b5b828201905092915050565b600061179382611814565b915061179e83611814565b9250817fffffffffffffffffffffffffffffffffffffffffffffffffffffffffffffffff04831182151516156117d7576117d661190c565b5b828202905092915050565b60006117ed826117f4565b9050919050565b600073ffffffffffffffffffffffffffffffffffffffff82169050919050565b6000819050919050565b82818337600083830152505050565b60005b8381101561184b578082015181840152602081019050611830565b8381111561185a576000848401525b50505050565b6000600282049050600182168061187857607f821691505b6020821081141561188c5761188b61196a565b5b50919050565b600061189d82611814565b91507fffffffffffffffffffffffffffffffffffffffffffffffffffffffffffffffff8214156118d0576118cf61190c565b5b600182019050919050565b60006118e682611814565b91506118f183611814565b9250826119015761190061193b565b5b828206905092915050565b7f4e487b7100000000000000000000000000000000000000000000000000000000600052601160045260246000fd5b7f4e487b7100000000000000000000000000000000000000000000000000000000600052601260045260246000fd5b7f4e487b7100000000000000000000000000000000000000000000000000000000600052602260045260246000fd5b7f4e487b7100000000000000000000000000000000000000000000000000000000600052604160045260246000fd5b6000601f19601f8301169050919050565b6119e2816117e2565b81146119ed57600080fd5b5056fea2646970667358221220a28c3dac98f4a83d2e4cb5be40b53a65b70691a9a3a88d01ec1be682a104db2e64736f6c63430008000033",
  "linkReferences": {},
  "deployedLinkReferences": {}
}