{
  "_format": "hh-sol-artifact-1",
  "contractName": "WavePortal",
  "sourceName": "contracts/WavePortal.sol",
  "abi": [
    {
      "inputs": [
        {
          "internalType": "uint256",
          "name": "cooldown_sec",
          "type": "uint256"
        }
      ],
      "stateMutability": "payable",
      "type": "constructor"
    },
    {
      "anonymous": false,
      "inputs": [
        {
          "indexed": true,
          "internalType": "address",
          "name": "from",
          "type": "address"
        },
        {
          "indexed": false,
          "internalType": "uint256",
          "name": "timestamp",
          "type": "uint256"
        },
        {
          "indexed": false,
          "internalType": "string",
          "name": "message",
          "type": "string"
        },
        {
          "indexed": false,
          "internalType": "bool",
          "name": "waverWonPrize",
          "type": "bool"
        }
      ],
      "name": "NewWave",
      "type": "event"
    },
    {
      "inputs": [
        {
          "internalType": "address",
          "name": "",
          "type": "address"
        }
      ],
      "name": "balances",
      "outputs": [
        {
          "internalType": "uint256",
          "name": "",
          "type": "uint256"
        }
      ],
      "stateMutability": "view",
      "type": "function"
    },
    {
      "inputs": [],
      "name": "getAddresses",
      "outputs": [
        {
          "internalType": "address[]",
          "name": "",
          "type": "address[]"
        }
      ],
      "stateMutability": "view",
      "type": "function"
    },
    {
      "inputs": [],
      "name": "getAllWaves",
      "outputs": [
        {
          "components": [
            {
              "internalType": "address",
              "name": "waver",
              "type": "address"
            },
            {
              "internalType": "string",
              "name": "message",
              "type": "string"
            },
            {
              "internalType": "uint256",
              "name": "timestamp",
              "type": "uint256"
            },
            {
              "internalType": "bool",
              "name": "waverWonPrize",
              "type": "bool"
            }
          ],
          "internalType": "struct WavePortal.Wave[]",
          "name": "",
          "type": "tuple[]"
        }
      ],
      "stateMutability": "view",
      "type": "function"
    },
    {
      "inputs": [],
      "name": "getTotalWaves",
      "outputs": [
        {
          "internalType": "uint256",
          "name": "",
          "type": "uint256"
        }
      ],
      "stateMutability": "view",
      "type": "function"
    },
    {
      "inputs": [],
      "name": "getUserWaves",
      "outputs": [
        {
          "internalType": "address[]",
          "name": "",
          "type": "address[]"
        },
        {
          "internalType": "uint256[]",
          "name": "",
          "type": "uint256[]"
        }
      ],
      "stateMutability": "view",
      "type": "function"
    },
    {
      "inputs": [
        {
          "internalType": "address",
          "name": "",
          "type": "address"
        }
      ],
      "name": "lastWavedAt",
      "outputs": [
        {
          "internalType": "uint256",
          "name": "",
          "type": "uint256"
        }
      ],
      "stateMutability": "view",
      "type": "function"
    },
    {
      "inputs": [],
      "name": "totalWaves",
      "outputs": [
        {
          "internalType": "uint256",
          "name": "",
          "type": "uint256"
        }
      ],
      "stateMutability": "view",
      "type": "function"
    },
    {
      "inputs": [
        {
          "internalType": "string",
          "name": "_message",
          "type": "string"
        }
      ],
      "name": "wave",
      "outputs": [],
      "stateMutability": "nonpayable",
      "type": "function"
    }
  ],
  "bytecode": "0x608060405260405162001e8038038062001e808339818101604052810190620000299190620001a8565b620000746040518060400160405280601d81526020017f436f6e747261637420686173206265656e20636f6e73747275637465640000008152506200009260201b62000c4f1760201c565b806005819055506200008b6200013560201b60201c565b50620003b3565b6200013281604051602401620000a9919062000215565b6040516020818303038152906040527f41304fac000000000000000000000000000000000000000000000000000000007bffffffffffffffffffffffffffffffffffffffffffffffffffffffff19166020820180517bffffffffffffffffffffffffffffffffffffffffffffffffffffffff83818316178352505050506200016860201b60201c565b50565b6064600454424462000148919062000255565b62000154919062000255565b620001609190620002f2565b600481905550565b60008151905060006a636f6e736f6c652e6c6f679050602083016000808483855afa5050505050565b600081519050620001a28162000399565b92915050565b600060208284031215620001bb57600080fd5b6000620001cb8482850162000191565b91505092915050565b6000620001e18262000239565b620001ed818562000244565b9350620001ff818560208601620002bc565b6200020a8162000388565b840191505092915050565b60006020820190508181036000830152620002318184620001d4565b905092915050565b600081519050919050565b600082825260208201905092915050565b60006200026282620002b2565b91506200026f83620002b2565b9250827fffffffffffffffffffffffffffffffffffffffffffffffffffffffffffffffff03821115620002a757620002a66200032a565b5b828201905092915050565b6000819050919050565b60005b83811015620002dc578082015181840152602081019050620002bf565b83811115620002ec576000848401525b50505050565b6000620002ff82620002b2565b91506200030c83620002b2565b9250826200031f576200031e62000359565b5b828206905092915050565b7f4e487b7100000000000000000000000000000000000000000000000000000000600052601160045260246000fd5b7f4e487b7100000000000000000000000000000000000000000000000000000000600052601260045260246000fd5b6000601f19601f8301169050919050565b620003a481620002b2565b8114620003b057600080fd5b50565b611abd80620003c36000396000f3fe608060405234801561001057600080fd5b50600436106100885760003560e01c80639a2cdc081161005b5780639a2cdc0814610116578063a39fac1214610134578063a42a466314610152578063bd43a9081461018257610088565b806327e235e31461008d578063291bcab3146100bd578063449d46c0146100db5780634ad88b38146100f7575b600080fd5b6100a760048036038101906100a29190611035565b6101a0565b6040516100b49190611620565b60405180910390f35b6100c56101b8565b6040516100d29190611620565b60405180910390f35b6100f560048036038101906100f0919061105e565b6101be565b005b6100ff61070f565b60405161010d9291906114a0565b60405180910390f35b61011e6109f2565b60405161012b9190611620565b60405180910390f35b61013c610a3d565b604051610149919061147e565b60405180910390f35b61016c60048036038101906101679190611035565b610acb565b6040516101799190611620565b60405180910390f35b61018a610ae3565b60405161019791906114d7565b60405180910390f35b60006020528060005260406000206000915090505481565b60025481565b4260016005546101ce9190611813565b600660003373ffffffffffffffffffffffffffffffffffffffff1673ffffffffffffffffffffffffffffffffffffffff1681526020019081526020016000205461021891906117bd565b10610258576040517f08c379a000000000000000000000000000000000000000000000000000000000815260040161024f906115e0565b60405180910390fd5b42600660003373ffffffffffffffffffffffffffffffffffffffff1673ffffffffffffffffffffffffffffffffffffffff168152602001908152602001600020819055506001600260008282546102af91906117bd565b9250508190555060016000803373ffffffffffffffffffffffffffffffffffffffff1673ffffffffffffffffffffffffffffffffffffffff168152602001908152602001600020600082825461030591906117bd565b925050819055506001339080600181540180825580915050600190039060005260206000200160009091909190916101000a81548173ffffffffffffffffffffffffffffffffffffffff021916908373ffffffffffffffffffffffffffffffffffffffff1602179055506103af6040518060400160405280601681526020017f257320776176656420772f206d657373616765202573000000000000000000008152503383610ce8565b61042c6040518060400160405280601881526020017f62616c616e636520666f722073656e64657220697320256400000000000000008152506000803373ffffffffffffffffffffffffffffffffffffffff1673ffffffffffffffffffffffffffffffffffffffff16815260200190815260200160002054610d87565b6000610436610e23565b6104776040518060400160405280601681526020017f52616e646f6d20232067656e6572617465643a20256400000000000000000000815250600454610d87565b603260045410156105c5576104c16040518060400160405280600681526020017f257320776f6e000000000000000000000000000000000000000000000000000081525033610e50565b600190506000655af3107a4000905047811115610513576040517f08c379a000000000000000000000000000000000000000000000000000000000815260040161050a90611600565b60405180910390fd5b6000803373ffffffffffffffffffffffffffffffffffffffff168360405161053a90611469565b60006040518083038185875af1925050503d8060008114610577576040519150601f19603f3d011682016040523d82523d6000602084013e61057c565b606091505b5091509150816105c1576040517f08c379a00000000000000000000000000000000000000000000000000000000081526004016105b8906115c0565b60405180910390fd5b5050505b600360405180608001604052803373ffffffffffffffffffffffffffffffffffffffff168152602001848152602001428152602001831515815250908060018154018082558091505060019003906000526020600020906004020160009091909190915060008201518160000160006101000a81548173ffffffffffffffffffffffffffffffffffffffff021916908373ffffffffffffffffffffffffffffffffffffffff160217905550602082015181600101908051906020019061068c929190610f15565b506040820151816002015560608201518160030160006101000a81548160ff02191690831515021790555050503373ffffffffffffffffffffffffffffffffffffffff167f6d1607feb02544462392cd79bc9fc3cea2a1dd50600d5b503009b84ae27748ca4284846040516107039392919061163b565b60405180910390a25050565b606080600060018054905067ffffffffffffffff811115610759577f4e487b7100000000000000000000000000000000000000000000000000000000600052604160045260246000fd5b6040519080825280602002602001820160405280156107875781602001602082028036833780820191505090505b509050600060018054905067ffffffffffffffff8111156107d1577f4e487b7100000000000000000000000000000000000000000000000000000000600052604160045260246000fd5b6040519080825280602002602001820160405280156107ff5781602001602082028036833780820191505090505b50905060005b6001805490508110156109e5576001818154811061084c577f4e487b7100000000000000000000000000000000000000000000000000000000600052603260045260246000fd5b9060005260206000200160009054906101000a900473ffffffffffffffffffffffffffffffffffffffff168382815181106108b0577f4e487b7100000000000000000000000000000000000000000000000000000000600052603260045260246000fd5b602002602001019073ffffffffffffffffffffffffffffffffffffffff16908173ffffffffffffffffffffffffffffffffffffffff168152505060008060018381548110610927577f4e487b7100000000000000000000000000000000000000000000000000000000600052603260045260246000fd5b9060005260206000200160009054906101000a900473ffffffffffffffffffffffffffffffffffffffff1673ffffffffffffffffffffffffffffffffffffffff1673ffffffffffffffffffffffffffffffffffffffff168152602001908152602001600020548282815181106109c6577f4e487b7100000000000000000000000000000000000000000000000000000000600052603260045260246000fd5b60200260200101818152505080806109dd90611929565b915050610805565b5081819350935050509091565b6000610a356040518060400160405280601681526020017f7765206861766520256420746f74616c20776176657300000000000000000000815250600254610d87565b600254905090565b60606001805480602002602001604051908101604052809291908181526020018280548015610ac157602002820191906000526020600020905b8160009054906101000a900473ffffffffffffffffffffffffffffffffffffffff1673ffffffffffffffffffffffffffffffffffffffff1681526020019060010190808311610a77575b5050505050905090565b60066020528060005260406000206000915090505481565b60606003805480602002602001604051908101604052809291908181526020016000905b82821015610c4657838290600052602060002090600402016040518060800160405290816000820160009054906101000a900473ffffffffffffffffffffffffffffffffffffffff1673ffffffffffffffffffffffffffffffffffffffff1673ffffffffffffffffffffffffffffffffffffffff168152602001600182018054610b90906118f7565b80601f0160208091040260200160405190810160405280929190818152602001828054610bbc906118f7565b8015610c095780601f10610bde57610100808354040283529160200191610c09565b820191906000526020600020905b815481529060010190602001808311610bec57829003601f168201915b50505050508152602001600282015481526020016003820160009054906101000a900460ff16151515158152505081526020019060010190610b07565b50505050905090565b610ce581604051602401610c6391906114f9565b6040516020818303038152906040527f41304fac000000000000000000000000000000000000000000000000000000007bffffffffffffffffffffffffffffffffffffffffffffffffffffffff19166020820180517bffffffffffffffffffffffffffffffffffffffffffffffffffffffff8381831617835250505050610eec565b50565b610d82838383604051602401610d009392919061154b565b6040516020818303038152906040527fe0e9ad4f000000000000000000000000000000000000000000000000000000007bffffffffffffffffffffffffffffffffffffffffffffffffffffffff19166020820180517bffffffffffffffffffffffffffffffffffffffffffffffffffffffff8381831617835250505050610eec565b505050565b610e1f8282604051602401610d9d929190611590565b6040516020818303038152906040527f9710a9d0000000000000000000000000000000000000000000000000000000007bffffffffffffffffffffffffffffffffffffffffffffffffffffffff19166020820180517bffffffffffffffffffffffffffffffffffffffffffffffffffffffff8381831617835250505050610eec565b5050565b60646004544244610e3491906117bd565b610e3e91906117bd565b610e489190611972565b600481905550565b610ee88282604051602401610e6692919061151b565b6040516020818303038152906040527f319af333000000000000000000000000000000000000000000000000000000007bffffffffffffffffffffffffffffffffffffffffffffffffffffffff19166020820180517bffffffffffffffffffffffffffffffffffffffffffffffffffffffff8381831617835250505050610eec565b5050565b60008151905060006a636f6e736f6c652e6c6f679050602083016000808483855afa5050505050565b828054610f21906118f7565b90600052602060002090601f016020900481019282610f435760008555610f8a565b82601f10610f5c57805160ff1916838001178555610f8a565b82800160010185558215610f8a579182015b82811115610f89578251825591602001919060010190610f6e565b5b509050610f979190610f9b565b5090565b5b80821115610fb4576000816000905550600101610f9c565b5090565b6000610fcb610fc6846116aa565b611679565b905082815260208101848484011115610fe357600080fd5b610fee8482856118b5565b509392505050565b60008135905061100581611a70565b92915050565b600082601f83011261101c57600080fd5b813561102c848260208601610fb8565b91505092915050565b60006020828403121561104757600080fd5b600061105584828501610ff6565b91505092915050565b60006020828403121561107057600080fd5b600082013567ffffffffffffffff81111561108a57600080fd5b6110968482850161100b565b91505092915050565b60006110ab83836110e3565b60208301905092915050565b60006110c383836113e8565b905092915050565b60006110d7838361144b565b60208301905092915050565b6110ec8161186d565b82525050565b6110fb8161186d565b82525050565b600061110c8261170a565b611116818561175d565b9350611121836116da565b8060005b83811015611152578151611139888261109f565b975061114483611736565b925050600181019050611125565b5085935050505092915050565b600061116a82611715565b611174818561176e565b935083602082028501611186856116ea565b8060005b858110156111c257848403895281516111a385826110b7565b94506111ae83611743565b925060208a0199505060018101905061118a565b50829750879550505050505092915050565b60006111df82611720565b6111e9818561177f565b93506111f4836116fa565b8060005b8381101561122557815161120c88826110cb565b975061121783611750565b9250506001810190506111f8565b5085935050505092915050565b61123b8161187f565b82525050565b61124a8161187f565b82525050565b600061125b8261172b565b611265818561179b565b93506112758185602086016118c4565b61127e81611a5f565b840191505092915050565b60006112948261172b565b61129e81856117ac565b93506112ae8185602086016118c4565b6112b781611a5f565b840191505092915050565b60006112cf6026836117ac565b91507f4661696c656420746f207769746864726177206d6f6e65792066726f6d20636f60008301527f6e747261637400000000000000000000000000000000000000000000000000006020830152604082019050919050565b6000611335600083611790565b9150600082019050919050565b600061134f600b836117ac565b91507f57616974203135206d696e0000000000000000000000000000000000000000006000830152602082019050919050565b600061138f602f836117ac565b91507f4e6f7420656e6f7567682065746820696e20636f6e747261637420666f72207060008301527f6179696e67206f7574207072697a6500000000000000000000000000000000006020830152604082019050919050565b600060808301600083015161140060008601826110e3565b50602083015184820360208601526114188282611250565b915050604083015161142d604086018261144b565b5060608301516114406060860182611232565b508091505092915050565b611454816118ab565b82525050565b611463816118ab565b82525050565b600061147482611328565b9150819050919050565b600060208201905081810360008301526114988184611101565b905092915050565b600060408201905081810360008301526114ba8185611101565b905081810360208301526114ce81846111d4565b90509392505050565b600060208201905081810360008301526114f1818461115f565b905092915050565b600060208201905081810360008301526115138184611289565b905092915050565b600060408201905081810360008301526115358185611289565b905061154460208301846110f2565b9392505050565b600060608201905081810360008301526115658186611289565b905061157460208301856110f2565b81810360408301526115868184611289565b9050949350505050565b600060408201905081810360008301526115aa8185611289565b90506115b9602083018461145a565b9392505050565b600060208201905081810360008301526115d9816112c2565b9050919050565b600060208201905081810360008301526115f981611342565b9050919050565b6000602082019050818103600083015261161981611382565b9050919050565b6000602082019050611635600083018461145a565b92915050565b6000606082019050611650600083018661145a565b81810360208301526116628185611289565b90506116716040830184611241565b949350505050565b6000604051905081810181811067ffffffffffffffff821117156116a05761169f611a30565b5b8060405250919050565b600067ffffffffffffffff8211156116c5576116c4611a30565b5b601f19601f8301169050602081019050919050565b6000819050602082019050919050565b6000819050602082019050919050565b6000819050602082019050919050565b600081519050919050565b600081519050919050565b600081519050919050565b600081519050919050565b6000602082019050919050565b6000602082019050919050565b6000602082019050919050565b600082825260208201905092915050565b600082825260208201905092915050565b600082825260208201905092915050565b600081905092915050565b600082825260208201905092915050565b600082825260208201905092915050565b60006117c8826118ab565b91506117d3836118ab565b9250827fffffffffffffffffffffffffffffffffffffffffffffffffffffffffffffffff03821115611808576118076119a3565b5b828201905092915050565b600061181e826118ab565b9150611829836118ab565b9250817fffffffffffffffffffffffffffffffffffffffffffffffffffffffffffffffff0483118215151615611862576118616119a3565b5b828202905092915050565b60006118788261188b565b9050919050565b60008115159050919050565b600073ffffffffffffffffffffffffffffffffffffffff82169050919050565b6000819050919050565b82818337600083830152505050565b60005b838110156118e25780820151818401526020810190506118c7565b838111156118f1576000848401525b50505050565b6000600282049050600182168061190f57607f821691505b6020821081141561192357611922611a01565b5b50919050565b6000611934826118ab565b91507fffffffffffffffffffffffffffffffffffffffffffffffffffffffffffffffff821415611967576119666119a3565b5b600182019050919050565b600061197d826118ab565b9150611988836118ab565b925082611998576119976119d2565b5b828206905092915050565b7f4e487b7100000000000000000000000000000000000000000000000000000000600052601160045260246000fd5b7f4e487b7100000000000000000000000000000000000000000000000000000000600052601260045260246000fd5b7f4e487b7100000000000000000000000000000000000000000000000000000000600052602260045260246000fd5b7f4e487b7100000000000000000000000000000000000000000000000000000000600052604160045260246000fd5b6000601f19601f8301169050919050565b611a798161186d565b8114611a8457600080fd5b5056fea2646970667358221220a9ebf2d4446f0264a46b45a3719cfd345bd6641c7c184ec15b6b6c91b01da5a764736f6c63430008000033",
  "linkReferences": {},
  "deployedLinkReferences": {}
}