{"address":"0x5FbDB2315678afecb367f032d93F642f64180aa3","bytecode":"0x60806040523480156200001157600080fd5b506200004160405180606001604052806025815260200162000f28602591396200004760201b620006851760201c565b620001db565b620000e7816040516024016200005e919062000154565b6040516020818303038152906040527f41304fac000000000000000000000000000000000000000000000000000000007bffffffffffffffffffffffffffffffffffffffffffffffffffffffff19166020820180517bffffffffffffffffffffffffffffffffffffffffffffffffffffffff8381831617835250505050620000ea60201b60201c565b50565b60008151905060006a636f6e736f6c652e6c6f679050602083016000808483855afa5050505050565b6000620001208262000178565b6200012c818562000183565b93506200013e81856020860162000194565b6200014981620001ca565b840191505092915050565b6000602082019050818103600083015262000170818462000113565b905092915050565b600081519050919050565b600082825260208201905092915050565b60005b83811015620001b457808201518184015260208101905062000197565b83811115620001c4576000848401525b50505050565b6000601f19601f8301169050919050565b610d3d80620001eb6000396000f3fe608060405234801561001057600080fd5b50600436106100625760003560e01c806327e235e314610067578063291bcab3146100975780634ad88b38146100b55780636fe15b44146100d45780639a2cdc08146100de578063a39fac12146100fc575b600080fd5b610081600480360381019061007c9190610894565b61011a565b60405161008e9190610af9565b60405180910390f35b61009f610132565b6040516100ac9190610af9565b60405180910390f35b6100bd610138565b6040516100cb929190610a40565b60405180910390f35b6100dc61041b565b005b6100e66105ac565b6040516100f39190610af9565b60405180910390f35b6101046105f7565b6040516101119190610a1e565b60405180910390f35b60006020528060005260406000206000915090505481565b60025481565b606080600060018054905067ffffffffffffffff811115610182577f4e487b7100000000000000000000000000000000000000000000000000000000600052604160045260246000fd5b6040519080825280602002602001820160405280156101b05781602001602082028036833780820191505090505b509050600060018054905067ffffffffffffffff8111156101fa577f4e487b7100000000000000000000000000000000000000000000000000000000600052604160045260246000fd5b6040519080825280602002602001820160405280156102285781602001602082028036833780820191505090505b50905060005b60018054905081101561040e5760018181548110610275577f4e487b7100000000000000000000000000000000000000000000000000000000600052603260045260246000fd5b9060005260206000200160009054906101000a900473ffffffffffffffffffffffffffffffffffffffff168382815181106102d9577f4e487b7100000000000000000000000000000000000000000000000000000000600052603260045260246000fd5b602002602001019073ffffffffffffffffffffffffffffffffffffffff16908173ffffffffffffffffffffffffffffffffffffffff168152505060008060018381548110610350577f4e487b7100000000000000000000000000000000000000000000000000000000600052603260045260246000fd5b9060005260206000200160009054906101000a900473ffffffffffffffffffffffffffffffffffffffff1673ffffffffffffffffffffffffffffffffffffffff1673ffffffffffffffffffffffffffffffffffffffff168152602001908152602001600020548282815181106103ef577f4e487b7100000000000000000000000000000000000000000000000000000000600052603260045260246000fd5b602002602001018181525050808061040690610c67565b91505061022e565b5081819350935050509091565b60016002600082825461042e9190610ba2565b9250508190555060016000803373ffffffffffffffffffffffffffffffffffffffff1673ffffffffffffffffffffffffffffffffffffffff16815260200190815260200160002060008282546104849190610ba2565b925050819055506001339080600181540180825580915050600190039060005260206000200160009091909190916101000a81548173ffffffffffffffffffffffffffffffffffffffff021916908373ffffffffffffffffffffffffffffffffffffffff16021790555061052d6040518060400160405280600c81526020017f25732068617320776176656400000000000000000000000000000000000000008152503361071e565b6105aa6040518060400160405280601881526020017f62616c616e636520666f722073656e64657220697320256400000000000000008152506000803373ffffffffffffffffffffffffffffffffffffffff1673ffffffffffffffffffffffffffffffffffffffff168152602001908152602001600020546107ba565b565b60006105ef6040518060400160405280601681526020017f7765206861766520256420746f74616c207761766573000000000000000000008152506002546107ba565b600254905090565b6060600180548060200260200160405190810160405280929190818152602001828054801561067b57602002820191906000526020600020905b8160009054906101000a900473ffffffffffffffffffffffffffffffffffffffff1673ffffffffffffffffffffffffffffffffffffffff1681526020019060010190808311610631575b5050505050905090565b61071b816040516024016106999190610a77565b6040516020818303038152906040527f41304fac000000000000000000000000000000000000000000000000000000007bffffffffffffffffffffffffffffffffffffffffffffffffffffffff19166020820180517bffffffffffffffffffffffffffffffffffffffffffffffffffffffff8381831617835250505050610856565b50565b6107b68282604051602401610734929190610a99565b6040516020818303038152906040527f319af333000000000000000000000000000000000000000000000000000000007bffffffffffffffffffffffffffffffffffffffffffffffffffffffff19166020820180517bffffffffffffffffffffffffffffffffffffffffffffffffffffffff8381831617835250505050610856565b5050565b61085282826040516024016107d0929190610ac9565b6040516020818303038152906040527f9710a9d0000000000000000000000000000000000000000000000000000000007bffffffffffffffffffffffffffffffffffffffffffffffffffffffff19166020820180517bffffffffffffffffffffffffffffffffffffffffffffffffffffffff8381831617835250505050610856565b5050565b60008151905060006a636f6e736f6c652e6c6f679050602083016000808483855afa5050505050565b60008135905061088e81610cf0565b92915050565b6000602082840312156108a657600080fd5b60006108b48482850161087f565b91505092915050565b60006108c983836108ed565b60208301905092915050565b60006108e18383610a00565b60208301905092915050565b6108f681610bf8565b82525050565b61090581610bf8565b82525050565b600061091682610b34565b6109208185610b6f565b935061092b83610b14565b8060005b8381101561095c57815161094388826108bd565b975061094e83610b55565b92505060018101905061092f565b5085935050505092915050565b600061097482610b3f565b61097e8185610b80565b935061098983610b24565b8060005b838110156109ba5781516109a188826108d5565b97506109ac83610b62565b92505060018101905061098d565b5085935050505092915050565b60006109d282610b4a565b6109dc8185610b91565b93506109ec818560208601610c34565b6109f581610cdf565b840191505092915050565b610a0981610c2a565b82525050565b610a1881610c2a565b82525050565b60006020820190508181036000830152610a38818461090b565b905092915050565b60006040820190508181036000830152610a5a818561090b565b90508181036020830152610a6e8184610969565b90509392505050565b60006020820190508181036000830152610a9181846109c7565b905092915050565b60006040820190508181036000830152610ab381856109c7565b9050610ac260208301846108fc565b9392505050565b60006040820190508181036000830152610ae381856109c7565b9050610af26020830184610a0f565b9392505050565b6000602082019050610b0e6000830184610a0f565b92915050565b6000819050602082019050919050565b6000819050602082019050919050565b600081519050919050565b600081519050919050565b600081519050919050565b6000602082019050919050565b6000602082019050919050565b600082825260208201905092915050565b600082825260208201905092915050565b600082825260208201905092915050565b6000610bad82610c2a565b9150610bb883610c2a565b9250827fffffffffffffffffffffffffffffffffffffffffffffffffffffffffffffffff03821115610bed57610bec610cb0565b5b828201905092915050565b6000610c0382610c0a565b9050919050565b600073ffffffffffffffffffffffffffffffffffffffff82169050919050565b6000819050919050565b60005b83811015610c52578082015181840152602081019050610c37565b83811115610c61576000848401525b50505050565b6000610c7282610c2a565b91507fffffffffffffffffffffffffffffffffffffffffffffffffffffffffffffffff821415610ca557610ca4610cb0565b5b600182019050919050565b7f4e487b7100000000000000000000000000000000000000000000000000000000600052601160045260246000fd5b6000601f19601f8301169050919050565b610cf981610bf8565b8114610d0457600080fd5b5056fea2646970667358221220e67986721e6ff4dbe7a54d4fab08f5d95f79e9551023d54683a2102310824b1364736f6c63430008040033596f20796f2c204920616d206120636f6e747261637420616e64204920616d20736d617274","abi":[{"inputs":[],"stateMutability":"nonpayable","type":"constructor"},{"inputs":[{"internalType":"address","name":"","type":"address"}],"name":"balances","outputs":[{"internalType":"uint256","name":"","type":"uint256"}],"stateMutability":"view","type":"function"},{"inputs":[],"name":"getAddresses","outputs":[{"internalType":"address[]","name":"","type":"address[]"}],"stateMutability":"view","type":"function"},{"inputs":[],"name":"getTotalWaves","outputs":[{"internalType":"uint256","name":"","type":"uint256"}],"stateMutability":"view","type":"function"},{"inputs":[],"name":"getUserWaves","outputs":[{"internalType":"address[]","name":"","type":"address[]"},{"internalType":"uint256[]","name":"","type":"uint256[]"}],"stateMutability":"view","type":"function"},{"inputs":[],"name":"totalWaves","outputs":[{"internalType":"uint256","name":"","type":"uint256"}],"stateMutability":"view","type":"function"},{"inputs":[],"name":"wave","outputs":[],"stateMutability":"nonpayable","type":"function"}]}